:1000000023C03BC03AC039C038C04BC136C035C030
:1000100034C033C032C031C030C02FC02EC0000049
:100020000000370000000000380002020202020255
:10003000020202020102040810202004100801023A
:10004000000004000000000011241FBECFEDCDBF52
:1000500010E0A0E6B0E0E4EDF3E002C005900D9200
:10006000A039B107D9F720E0A0E9B0E001C01D92A6
:10007000A939B207E1F75FD1ABC1C2CF90E0FC0173
:10008000E25CFF4F3491FC01EC5CFF4F2491FC01DA
:10009000E65DFF4FE491EE23B9F0332329F03230CF
:1000A00001F198F43130C9F0F0E0EE0FFF1FEC5D84
:1000B000FF4FA591B4918FB7F894EC91611114C0E2
:1000C00020952E232C938FBF0895333011F03430B8
:1000D00059F78CB58F7D8CBDE7CF8AB58F778ABDF8
:1000E000E3CF8AB58F7DFBCF2E2BECCFCF93DF9361
:1000F00090E0FC01EC5CFF4F2491865D9F4FFC017A
:1001000084918823D1F090E0880F991FFC01E25E72
:10011000FF4FA591B491FC01EC5DFF4FC591D491C7
:1001200061110EC09FB7F8948C91E22FE0958E2359
:100130008C932881E223E8839FBFDF91CF910895BC
:100140008FB7F894EC91E22BEC938FBFF6CF3FB7CB
:10015000F8948091950090919600A0919700B091AD
:10016000980022B708B601FE05C02F3F19F001968E
:10017000A11DB11D3FBFBA2FA92F982F8827BC0101
:10018000CD01620F711D811D911D46E0660F771F25
:10019000881F991F4A95D1F708958F929F92AF9229
:1001A000BF92CF92DF92EF92FF924B015C01CFDFC3
:1001B0006B017C01CCDF6C197D098E099F09683EBB
:1001C000734081059105B0F321E0821A9108A108DE
:1001D000B10888EEC80E83E0D81EE11CF11C811422
:1001E0009104A104B10431F7FF90EF90DF90CF901C
:1001F000BF90AF909F908F900895CF92DF92EF9233
:10020000FF92CF936B017C01C42F60E0842F36DF17
:1002100088E190E030E4B701A601082E04C076958D
:100220006795579547950A94D2F74FB93EB92FB7BE
:10023000F894769B12C02FBF2FB10897883F2FEFFD
:10024000920749F761E08C2F19DF60E08C2FCF9186
:10025000FF90EF90DF90CF9011CF689AEACFEF92A6
:10026000FF921F93CF93DF937C01162FEC016896CA
:100270009A918A917A916A91412FBFDFCE15DF055D
:10028000B9F761E070E080E090E087DF6881798114
:100290008A819B81412FDF91CF911F91FF90EF9039
:1002A000ACCF1F920F920FB60F9211242F933F9352
:1002B0008F939F93AF93BF93809191009091920001
:1002C000A0919300B09194003091900020E3230F0F
:1002D0002D3758F54096A11DB11D209390008093B5
:1002E000910090939200A0939300B093940080911A
:1002F000950090919600A0919700B091980001967A
:10030000A11DB11D8093950090939600A093970036
:10031000B0939800BF91AF919F918F913F912F9192
:100320000F900FBE0F901F90189523EB230F41964F
:10033000A11DB11DD2CF78948AB582608ABD8AB5DD
:1003400081608ABD83B7826083BF83B7816083BFCA
:1003500089B7826089BF80B7826080BF3298319A46
:10036000309A379A8CB580648CBD8DB18F718DB900
:100370008DB18A618DB9BA9AB99AB89861E083E073
:10038000B5DE61E084E0B2DE61E083E077DE61E06B
:1003900084E074DE60E080E0A9DE60E085E0A6DE57
:1003A00068EE73E080E090E0F8DE63E088E790E0DC
:1003B00056DF64EF71E080E090E0EFDE64E080E61D
:1003C00090E04DDFC0E0D0E02097F1F319DEFCCFE4
:0403D000F894FFCFCF
:1003D4000880600029800008424E001AB30400001F
:1003E40034009A000500580038005A005180000873
:1003F400424E001AB30400003C009A000500580065
:00000001FF
